:100000000C942A000C94F3000C943C000C943C00DB
:100010000C943C000C943C000C943C000C943C0070
:100020000C943C000C943C000C943C000C943C0060
:100030000C943C000C943C000C943C000C943C0050
:100040000C943C000C943C000C943C000C943C0040
:100050000C943C0011241FBECFE5D8E0DEBFCDBF1D
:1000600020E0A0E6B0E001C01D92A336B207E1F7A0
:100070000E94B9020C9498060C94000060E081E4A0
:100080000E941C0261E081E40E941C0262E081E4A3
:100090000E941C0260E082E40E941C0261E082E493
:1000A0000E941C0262E082E40E941C0262E084E47E
:1000B0000E940F020E943702789485B7836085BF43
:1000C0008BB780648BBF0895CF93DF9342E650E0F7
:1000D00062E084E40E94160260E081E40E94230250
:1000E000C1E0D0E0D0936100C093600088E893E164
:1000F0000E94390260E081E40E942A0261E081E40A
:100100000E943102D0936100C093600088EE93E0BA
:100110000E94390261E081E40E94310288EE93E09E
:100120000E94390261E081E40E94310288EE93E08E
:100130000E94390261E081E40E94310288EE93E07E
:100140000E94390261E081E40E94310288EE93E06E
:100150000E94390261E081E40E942A0262E081E4A7
:100160000E94230282E090E09093610080936000FF
:1001700088E893E10E94390262E081E40E942A0249
:1001800061E081E40E943102D0936100C09360007D
:1001900088EE93E00E94390261E081E40E9431021E
:1001A00088EE93E00E94390261E081E40E9431020E
:1001B00088EE93E00E94390261E081E40E943102FE
:1001C00088EE93E00E94390261E081E40E943102EE
:1001D00088EE93E00E94390261E081E40E942A02E5
:1001E000DF91CF9108951F920F920FB60F921124B5
:1001F0002F933F934F935F936F937F938F939F932F
:10020000AF93BF93EF93FF9342E650E062E084E444
:100210000E94160280916200813009F0EFC088E8E8
:1002200093E10E94390242E650E062E084E40E94D9
:10023000160280916200813009F4E0C08091600074
:10024000909161008130910521F0029709F45EC020
:1002500071C060E081E40E942A0262E082E40E94B0
:10026000230288E893E10E94390262E082E40E945E
:100270002A0261E081E40E94310261E082E40E948E
:10028000310288EE93E00E94390261E081E40E942D
:10029000310261E082E40E94310288EE93E00E9424
:1002A000390261E081E40E94310261E082E40E944F
:1002B000310288EE93E00E94390261E081E40E94FD
:1002C000310261E082E40E94310288EE93E00E94F4
:1002D000390261E081E40E942A0261E082E40E9426
:1002E0002A0260E082E40E94230262E081E40E942C
:1002F000230288E893E10E94390262E081E40E94CF
:100300002A0260E082E40E942A0214C062E081E4D2
:100310000E94230260E082E40E94230288E893E1C5
:100320000E94390262E081E40E942A0260E082E4D5
:100330000E942A0262E081E40E942A0261E081E4D4
:100340000E94310261E082E40E94310288EE93E073
:100350000E94390261E081E40E94310261E082E49E
:100360000E94310288EE93E00E94390261E081E44C
:100370000E94310261E082E40E94310288EE93E043
:100380000E94390261E081E40E94310261E082E46E
:100390000E94310288EE93E00E94390261E081E41C
:1003A0000E942A0261E082E40E942A0260E082E464
:1003B0000E94230262E081E40E94230288E893E124
:1003C0000E94390262E081E40E942A0260E082E435
:1003D0000E942A0260E081E40E94230262E082E43B
:1003E0000E94230288E893E10E94390260E081E4E0
:1003F0000E942A0262E082E40E942A02FF91EF91A9
:10040000BF91AF919F918F917F916F915F914F912C
:100410003F912F910F900FBE0F901F901895982F1E
:10042000862F40E0692F0E94BE020895982F862FE4
:10043000692F0E9413040895982F862F41E0692F99
:100440000E94BE020895982F862F41E0692F0E94D6
:1004500049030895982F862F40E0692F0E94490391
:100460000895982F862F692F0E94D403089513BEF4
:1004700008958F929F92AF92BF92CF92DF92EF92A8
:10048000FF92CF93DF93EC01BC0180E090E00E94EB
:10049000A5056B017C012FE632E143E852E40E949E
:1004A000FF0488239CF4A70196016FE672E183E8BC
:1004B00092E40E947B042FE632E143E85EE30E946F
:1004C00004050E947605C1E0D0E035C0C134D105F5
:1004D00079F12FE632E143E852E4C701B6010E9408
:1004E00004050E94E8040E9476054B015C01EB01C3
:1004F0002FE632E143E85EE3C701B6010E9404053E
:100500006B017C01B40180E090E00E94A5059B0195
:10051000AC01C701B6010E9404059B01AC0160E07B
:1005200070E080E893E40E947B040E94760503C09B
:1005300060E0C1E0D0E062BF83B7846083BF20E0A9
:1005400030E008C008B600FEFDCF88B7816088BFE4
:100550002F5F3F4F2C173D07A8F313BEDF91CF91BC
:10056000FF90EF90DF90CF90BF90AF909F908F90D3
:1005700008950E943E000E946400FDCF623459F14C
:1005800018F4613441F00895633409F444C06434CC
:1005900009F460C0089541110EC04AB321E030E073
:1005A000B90102C0660F771F8A95E2F7CB018095EB
:1005B00084238ABB0895413009F06AC04AB321E020
:1005C00030E0B90102C0660F771F8A95E2F7CB01D0
:1005D000842B8ABB089541110EC047B321E030E05F
:1005E000B90102C0660F771F8A95E2F7CB018095AB
:1005F000842387BB0895413009F04AC047B321E006
:1006000030E0B90102C0660F771F8A95E2F7CB018F
:10061000842B87BB089541110EC044B321E030E024
:10062000B90102C0660F771F8A95E2F7CB0180956A
:10063000842384BB0895413059F544B321E030E070
:10064000B90102C0660F771F8A95E2F7CB01842BB0
:1006500084BB089541110EC041B321E030E0B901DF
:1006600002C0660F771F8A95E2F7CB01809584233D
:1006700081BB0895413061F441B321E030E0B9011C
:1006800002C0660F771F8A95E2F7CB01842B81BBEE
:100690000895623409F44AC018F4613439F00895B9
:1006A000633421F1643409F460C0089541110EC02F
:1006B0004BB321E030E0B90102C0660F771F8A9585
:1006C000E2F7CB01809584238BBB0895413009F07C
:1006D0006AC04BB321E030E0B90102C0660F771F5A
:1006E0008A95E2F7CB01842B8BBB089541110EC094
:1006F00045B321E030E0B90102C0660F771F8A954B
:10070000E2F7CB018095842385BB0895413009F041
:100710004AC045B321E030E0B90102C0660F771F3F
:100720008A95E2F7CB01842B85BB089541110EC059
:1007300048B321E030E0B90102C0660F771F8A9507
:10074000E2F7CB018095842388BB0895413059F5A9
:1007500048B321E030E0B90102C0660F771F8A95E7
:10076000E2F7CB01842B88BB089541110EC042B340
:1007700021E030E0B90102C0660F771F8A95E2F7E9
:10078000CB018095842382BB0895413061F442B34C
:1007900021E030E0B90102C0660F771F8A95E2F7C9
:1007A000CB01842B82BB0895623419F118F46134B3
:1007B00031F00895633481F0643441F108954BB30E
:1007C00021E030E0B90102C0660F771F8A95E2F799
:1007D000CB0184278BBB089545B321E030E0B901FC
:1007E00002C0660F771F8A95E2F7CB01842785BB8D
:1007F000089548B321E030E0B90102C0660F771FC9
:100800008A95E2F7CB01842788BB089542B321E0A3
:1008100030E0B90102C0660F771F8A95E2F7CB017D
:10082000842782BB08956234C1F118F4613439F031
:1008300008956334D9F0643409F446C0089599B337
:1008400021E030E0B901082E02C0660F771F0A943C
:10085000E2F7292F30E026233723B90102C075952E
:1008600067958A95E2F7FA016083089593B321E0D2
:1008700030E0B901082E02C0660F771F0A94E2F734
:10088000292F30E026233723B90102C075956795DB
:100890008A95E2F7FA016083089596B321E030E08B
:1008A000B901082E02C0660F771F0A94E2F7292FBC
:1008B00030E026233723B90102C0759567958A95E4
:1008C000E2F7FA016083089590B321E030E0B901C6
:1008D000082E02C0660F771F0A94E2F7292F30E036
:1008E00026233723B90102C0759567958A95E2F7EB
:1008F000FA01608308955058BB27AA270E949304E9
:100900000C9446060E94380638F00E943F0620F0FC
:1009100039F49F3F19F426F40C9435060EF4E09553
:10092000E7FB0C940606E92F0E94570658F3BA1706
:10093000620773078407950720F079F4A6F50C94F5
:1009400091060EF4E0950B2EBA2FA02D0B01B901E4
:1009500090010C01CA01A0011124FF27591B99F035
:10096000593F50F4503E68F11A16F040A22F232F41
:10097000342F4427585FF3CF469537952795A79591
:10098000F0405395C9F77EF41F16BA0B620B730B38
:10099000840BBAF09150A1F0FF0FBB1F661F771FA9
:1009A000881FC2F70EC0BA0F621F731F841F48F45E
:1009B000879577956795B795F7959E3F08F0B0CFE7
:1009C0009395880F08F09927EE0F979587950895CE
:1009D0000E94790690F09F3748F4911116F40C9418
:1009E000920660E070E080E89FE3089526F01B1611
:1009F000611D711D811D0C940C060C9427060E942C
:100A0000E20508F481E008950E9418050C9446065A
:100A10000E943F0658F00E94380640F029F45F3FDC
:100A200029F00C94060651110C9492060C9435068C
:100A30000E94570668F39923B1F3552391F3951B50
:100A4000550BBB27AA2762177307840738F09F5FEF
:100A50005F4F220F331F441FAA1FA9F335D00E2E5C
:100A60003AF0E0E832D091505040E695001CCAF7C9
:100A70002BD0FE2F29D0660F771F881FBB1F26178C
:100A800037074807AB07B0E809F0BB0B802DBF0163
:100A9000FF2793585F4F3AF09E3F510578F00C9432
:100AA00006060C9492065F3FE4F3983ED4F38695D5
:100AB00077956795B795F7959F5FC9F7880F911D53
:100AC0009695879597F90895E1E0660F771F881F3F
:100AD000BB1F621773078407BA0720F0621B730BF2
:100AE000840BBA0BEE1F88F7E09508950E945F060D
:100AF00088F09F5798F0B92F9927B751B0F0E1F0DF
:100B0000660F771F881F991F1AF0BA95C9F714C08E
:100B1000B13091F00E949106B1E008950C949106D5
:100B2000672F782F8827B85F39F0B93FCCF38695C7
:100B300077956795B395D9F73EF490958095709524
:100B400061957F4F8F4F9F4F0895E89409C097FBA1
:100B50003EF490958095709561957F4F8F4F9F4F94
:100B60009923A9F0F92F96E9BB279395F6958795D8
:100B700077956795B795F111F8CFFAF4BB0F11F49B
:100B800060FF1BC06F5F7F4F8F4F9F4F16C0882342
:100B900011F096E911C0772321F09EE8872F762F78
:100BA00005C0662371F096E8862F70E060E02AF0B9
:100BB0009A95660F771F881FDAF7880F96958795A5
:100BC00097F90895990F0008550FAA0BE0E8FEEF7A
:100BD00016161706E807F907C0F012161306E40701
:100BE000F50798F0621B730B840B950B39F40A26FA
:100BF00061F0232B242B252B21F408950A2609F4D8
:100C0000A140A6958FEF811D811D089597F99F67DB
:100C100080E870E060E00895882371F4772321F084
:100C20009850872B762F07C0662311F499270DC0A3
:100C30009051862B70E060E02AF09A95660F771F3E
:100C4000881FDAF7880F9695879597F908959F3F43
:100C500031F0915020F4879577956795B795880F77
:100C6000911D9695879597F908959FEF80EC0895CB
:100C700000240A941616170618060906089500247B
:100C80000A9412161306140605060895092E0394F5
:100C9000000C11F4882352F0BB0F40F4BF2B11F469
:100CA00060FF04C06F5F7F4F8F4F9F4F089557FDC8
:100CB0009058440F551F59F05F3F71F04795880FCA
:100CC00097FB991F61F09F3F79F087950895121661
:100CD00013061406551FF2CF4695F1DF08C016160D
:100CE00017061806991FF1CF8695710561050894BE
:100CF00008950E945F06A0F0BEE7B91788F4BB27ED
:100D00009F3860F41616B11D672F782F8827985FDB
:100D1000F7CF869577956795B11D93959639C8F36A
:100D20000895E894BB2766277727CB0197F90895A4
:040D3000F894FFCF65
:00000001FF
